:020000040C00EE
:100000000088FE1F010200089902000899020008FA
:1000100099020008990200089902000800000000F7
:10002000000000000000000000000000990200082D
:1000300099020008000000009902000899020008D7
:100040009902000899020008990200089902000824
:10005000990200085D1D0008990200089902000835
:1000600099020008000000000000000000000000ED
:100070009902000800000000990200089902000897
:1000800099020008990200089902000899020008E4
:1000900099020008990200089902000899020008D4
:1000A00099020008990200089902000899020008C4
:1000B00099020008990200089902000899020008B4
:1000C00099020008990200089902000899020008A4
:1000D0009902000899020008990200089902000894
:1000E0009902000899020008990200089902000884
:1000F0009902000899020008990200089902000874
:100100009902000899020008990200089902000863
:100110009902000899020008990200089902000853
:100120009902000899020008990200089902000843
:100130009902000899020008990200089902000833
:100140009902000899020008990200089902000823
:100150009902000899020008990200089902000813
:10016000000000000000000000000000000000008F
:1001700099020008990200089902000899020008F3
:1001800099020008990200089902000899020008E3
:1001900099020008990200089902000899020008D3
:1001A00099020008990200089902000899020008C3
:1001B00099020008990200089902000899020008B3
:1001C00099020008990200089902000899020008A3
:1001D0009902000899020008990200080000000036
:1001E0009902000899020008990200089902000883
:1001F00099020008000000009902000800000000B9
:10020000DFF874D01D4880471D4C1E4DAC4209DA02
:1002100021686268A368043BA2BFC858D050FAE7BF
:100220000C34F3E7184B194CA34208DA19685A68E2
:100230000020043AA4BF8850FBE70833F4E71448D1
:100240008047144880470000A41E000C0088FE1F51
:100250008C000000A41E000C0088FE1F000000009F
:100260008C88FE1F0C000000000000200000000031
:1002700000000020000000000088FE1F9D02000812
:1002800048020008600200086002000878020008C6
:10029000F91D00089D1D0008FEE7000098B500AF9D
:1002A000054A4FF0005314460FCB84E80F0001F0CD
:1002B0001FFC01F087FC98BDC4FF032080B584B00B
:1002C00000AF2F4BDB6803F48033002B3ED02D4B67
:1002D000DB6803F00103002B02D02B4BFB6002E034
:1002E00001F066FCF860274B1B6803F00403002B49
:1002F00020D0244B9B6803F070631B0E0133BB605E
:10030000204B9B6803F4FE431B0A01337B601D4BAB
:100310009B6803F4FE031B0C01333B60BB683A6827
:1003200002FB03F3FA68B2FBF3F37A6802FB03F310
:10033000FB600DE0134B9B6803F07F0301333B60D0
:10034000FA683B68B2FBF3F3FB6001E00E4BFB6025
:100350000B4BDB68DBB20133FA68B2FBF3F3FB60F3
:10036000074B1B6903F001030133FA68B2FBF3F397
:10037000FB60064AFB6813601037BD4680BD00BFB6
:10038000004600501047005000366E01C0FF0320A9
:1003900080B582B000AF78607B68074A934207D18E
:1003A0004FF4803000F0A4FA4FF4803000F050F9A0
:1003B0000837BD4680BD00BF0040044080B485B012
:1003C00000AFF8600B467A60FB72FB7A9B08DBB2E9
:1003D0001846FB7A9B08DBB21A46FB68043253F8D6
:1003E0002220FB7A03F00303DB001946F8238B403D
:1003F000DB4302EA0301FB68021D43F82210FB689D
:100400005A6FFB7A5B00194603238B40DB431A408B
:10041000FB685A67FB683A4A934203D0FB68394A43
:1004200093420AD1FB681A6EFB7A012101FA03F3A9
:10043000DB431A40FB681A6642E07B681B78DBB23C
:100440005BB2002B3CDA7B685A68FB7A9A40FB6807
:100450005A60FB7ADB08DBB21846FB7ADB08DBB2BA
:100460001A46FB68103253F82220FB7A03F0070388
:100470009B00194607238B40DB4302EA0301FB681C
:1004800000F1100243F82210FB7ADB08DBB21846B9
:10049000FB7ADB08DBB21A46FB68103253F82220E5
:1004A0007B681B7A1946FB7A03F007039B0001FA6D
:1004B00003F342EA0301FB6800F1100243F8221043
:1004C000FB7A9B08DBB21846FB7A9B08DBB21A4624
:1004D000FB68043253F822207B681B781946FB7AAC
:1004E00003F00303DB0001FA03F342EA0301FB68B4
:1004F000021D43F822101437BD465DF8047B704797
:10050000008E0248008F024880B400AF034BD3F83E
:10051000C4301846BD465DF8047B7047004000506B
:1005200080B584B000AF7860FFF7C8FE0B4B1B6846
:100530000B4AA2FB03239A0C7B6802FB03F37B604C
:100540000023FB6003E000BFFB680133FB60FA6837
:100550007B689A42F7D31037BD4680BDC0FF0320A9
:1005600083DE1B43B0B584B002AF7860002000F09A
:100570008BF800F039FA7B68DB79002B0AD000F0A9
:1005800071FA00BF00F05CFA034683F00103DBB2AE
:10059000002BF7D17B685B7A184600F0EFF800BFBC
:1005A000FFF7B2FF0346002BFAD17B681B7A18468F
:1005B00000F0F4F97B681B7C184600F0FDF87B68BE
:1005C0005B7C184600F020F97B689B7C184600F0A5
:1005D00007F97B68DB7C184600F02AF97B689B7979
:1005E000002B0AD000F072FA00BF00F097FA034621
:1005F00083F00103DBB2002BF7D17B68DB78002BA3
:1006000002D100F0AFFA14E000F09CFA7B68998800
:100610007B68DA787B685B781D467B681B781C46B4
:100620007B689B780093084611462A46234600F0D3
:10063000A9FA7B68DB68B3F5803F03D14FF48030C3
:1006400000F022F8FFF73AFE0837BD46B0BD00BF04
:1006500080B485B000AF78607B681B0FFB607B685F
:1006600023F07043BB60FA6813465B0013449B00A1
:100670001A46044B1344BA681A601437BD465DF835
:10068000047B70471444005080B483B000AF78609E
:100690000649064BDB6823F480327B681343CB604A
:1006A0000C37BD465DF8047B704700BF0046005024
:1006B00080B483B000AF78600649064B9B6923F491
:1006C00080327B6813438B610C37BD465DF8047B39
:1006D000704700BF0046005080B483B000AF786020
:1006E0000649064B5B6A23F440327B6813434B6236
:1006F0000C37BD465DF8047B704700BF00460050D4
:1007000080B483B000AF0346FB80FB88002B08D188
:100710000A4A0A4BDB6823F4807323F00103D36099
:1007200007E0064A054BDB6843F4807343F001039E
:10073000D3600C37BD465DF8047B7047104700500E
:1007400080B483B000AF0346FB7100BF094BD3F800
:10075000C43003F00803002BF8D10749064BDB68CF
:1007600023F04002FB791343CB600C37BD465DF8A4
:10077000047B7047004000500043005080B483B0B9
:1007800000AF0346FB7100BF094BD3F8C43003F040
:100790000803002BF8D10749064BDB6823F08002E1
:1007A000FB791343CB600C37BD465DF8047B704783
:1007B000004000500043005080B483B000AF786028
:1007C0000649064BDB6823F0FF027B68013B1343BD
:1007D000CB600C37BD465DF8047B70470046005087
:1007E00080B483B000AF78600649064B1B6A23F0E3
:1007F00001027B68013B13430B620C37BD465DF879
:10080000047B70470046005080B483B000AF78602E
:100810000649064B1B6923F001027B68013B134329
:100820000B610C37BD465DF8047B704700460050F5
:1008300080B483B000AF78600649064B5B6923F053
:1008400001027B68013B13434B610C37BD465DF8E9
:10085000047B70470046005080B483B000AF7860DE
:100860000649064B9B6923F007027B68013B134353
:100870008B610C37BD465DF8047B70470046005025
:1008800080B483B000AF78600649064BDB6923F083
:100890003F027B68013B1343CB610C37BD465DF8DB
:1008A000047B70470046005080B483B000AF78608E
:1008B0000649064B5B6A23F0FF027B68013B13434A
:1008C0004B620C37BD465DF8047B70470046005014
:1008D00080B483B000AF0346FB71044AFB795360D8
:1008E0000C37BD465DF8047B704700BF00460050E2
:1008F00080B485B000AF78607B681B0FFB607B68BD
:1009000023F07043BB60FA6813465B0013449B00FE
:100910001A46044B1344BA681A601437BD465DF892
:10092000047B70474846005080B483B000AF7860C5
:100930003960194A184B5B6943F001035361164A49
:10094000154B5B6943F01003536113493B68013B4E
:100950001A027B68013B1B0613434B610E4A0E4B88
:100960005B6943F0400353610B4A0B4B5B6923F017
:1009700010035361084A084B5B6943F480235361B9
:1009800000BF054B1B6903F00403002BF9D00C37A3
:10099000BD465DF8047B70471047005080B582B0BB
:1009A00000AF0346FB710F4A0E4B5B6843F48013A4
:1009B0005360FB79012B0ED10A4A0A4B5B6823F482
:1009C000801353606420FFF7ABFD064A054B5B685C
:1009D00043F4002353606420FFF7A2FD0837BD46AF
:1009E00080BD00BF1047005080B400AF124B1B68A1
:1009F00003F00103002B09D10F4B01225A6000BF05
:100A00000D4B1B6803F00103002BF9D00B4B1B6847
:100A100003F40073002B0AD0084B4FF400729A6065
:100A200000BF064B1B6803F40073002BF9D1BD46D1
:100A30005DF8047B704700BF004200500044005046
:100A400080B400AF064B1B6803F00803002B0CBFFB
:100A500001230023DBB21846BD465DF8047B7047D6
:100A60000043005080B500AF00BF164BD3F8C43030
:100A700003F08003002BF8D1134A134BDB6923F0FA
:100A80003003D36100BF0F4BD3F8C43003F0080329
:100A9000002BF8D10C4A0C4BDB6843F00803D36001
:100AA00000BF084BD3F8C43003F00403002BF8D187
:100AB000054B08229A6000BFFFF726FD0346002B76
:100AC000FAD180BD0040005000430050B0B500AFE7
:100AD0000F4A0F4B5B6823F4803353600D4D0D4B71
:100AE0005B6823F4702424F0300401F061F80246BE
:100AF000094BA3FB02231B0D013B1B0423436B602B
:100B0000034A034B5B6823F400335360B0BD00BF5E
:100B100010470050004700506BCA5F6B80B400AFB5
:100B2000074B1B6803F46073B3F5607F0CBF0123B0
:100B30000023DBB21846BD465DF8047B704700BF5A
:100B40001047005080B400AF054A054B5B6823F4A2
:100B5000803323F002035360BD465DF8047B704789
:100B60001047005080B400AF054A054B5B6843F462
:100B7000803343F002035360BD465DF8047B704749
:100B80001047005080B586B000AFBA607B60034666
:100B9000FB810B467B73FB891846FFF7B1FD7B7B1E
:100BA000012B40F08480FB89002B09D101F000F873
:100BB00002464B4BA3FB02239B0C9B057B6102E08F
:100BC0004FF0C0637B617B697A6802FB03F2BB680C
:100BD000B2FBF3F37B617B69424AA2FB03231B094F
:100BE0009B0D3B61404A404B5B6843F001035360FF
:100BF0003D4A3D4B5B6843F0100353603A493A4B22
:100C00009A683A4B13407A68013A12021A433B69D8
:100C1000013B1B041A43BB68013B1B0613438B605B
:100C2000314A314B5B6843F0400353602E4A2E4BF0
:100C30005B6823F0100353602B4A2B4B5B6843F433
:100C40008023536000BF284B1B6803F00403002B74
:100C5000F9D0254A244B5B6823F00103536000BFA1
:100C6000214B1B6803F00103002BF9D17B69204A5B
:100C7000A2FB03235B099B0D3B613A6A3B699A42E5
:100C800002D2386900F038F87B695B08194AA2FB88
:100C900003235B099B0D3B613A6A3B699A4202D28E
:100CA000386900F029F8386A00F026F815E00E4996
:100CB0000D4B9B6823F07F023B6A013B13438B6023
:100CC000094A094B5B6843F00103536000BF064BC0
:100CD0001B6803F00103002BF9D01837BD4680BD17
:100CE00083DE1B43ABAAAAAA10470050FF8080F006
:100CF00089888888B7600BB680B582B000AF78600D
:100D00000749074B9B6823F4FE027B68013B1B04E9
:100D100013438B603220FFF703FC0837BD4680BDCC
:100D20001047005080B483B000AF78607B68DB6808
:100D300043F480727B68DA600C37BD465DF8047B53
:100D4000704700BF80B582B000AF78607B68104A02
:100D5000934203D10420FFF77BFC16E07B680D4A29
:100D6000934203D10820FFF773FC0EE07B680A4A28
:100D7000934203D11020FFF76BFC06E07B68074A23
:100D8000934202D10648FFF763FC0837BD4680BD99
:100D900000C0004000000140004001400040004809
:100DA0000100001080B582B000AF78607B68104A07
:100DB000934203D10420FFF79BFD16E07B680D4AA8
:100DC000934203D10820FFF793FD0EE07B680A4AA7
:100DD000934203D11020FFF78BFD06E07B68074AA2
:100DE000934202D10648FFF783FD0837BD4680BD18
:100DF00000C00040000001400040014000400048A9
:100E00000100001080B582B000AF78601020FFF7BD
:100E10005FFD7868FFF7C6FF7868FFF793FF083734
:100E2000BD4680BD80B584B000AF78600B46FB70D6
:100E30007868FFF7E7FF7868FFF774FF7B681B6847
:100E4000FB60FB6823F44043FB60FB789B03FA687C
:100E50001343FB607B68FA681A601037BD4680BD9B
:100E600080B483B000AF786039603B681A687B68F3
:100E70005A613B685B79C3F34013DBB21A057B68A8
:100E80005A603B681B79C3F30303DBB21A467B68E5
:100E90005A623B685B79C3F30303DBB21A467B6893
:100EA0001A623B685B79C3F30013DBB21A467B68B6
:100EB0009A613B681B79C3F30313DBB21A467B6864
:100EC000DA620C37BD465DF8047B704780B487B0AA
:100ED00000AF78600B46FB701346BB707B68D3F89D
:100EE000A830FB60FB78092B2CD801A252F823F024
:100EF000190F0008190F0008230F0008230F00081E
:100F0000450F0008450F0008450F0008450F000871
:100F10002D0F0008390F000803233B6100237B617C
:100F200016E00C233B6102237B6111E04FF4407318
:100F30003B6108237B610BE04FF440633B610A2374
:100F40007B6105E04FF440533B610C237B6100BFA4
:100F50003B69DB43FA681340FB60BA787B6902FAAD
:100F600003F3FA681343FB607B68FA68C3F8A820B0
:100F70001C37BD465DF8047B704700BF80B483B06A
:100F800000AF78607B68DB6843F480727B68DA606E
:100F90000C37BD465DF8047B704700BF80B483B05A
:100FA00000AF78607B6801221A610C37BD465DF89E
:100FB000047B704780B582B000AF78607B68094AD7
:100FC000934203D18020FFF743FB07E07B68064A8A
:100FD000934203D14FF48070FFF73AFB0837BD46C8
:100FE00080BD00BF000002400040024080B582B0DA
:100FF00000AF78607B68094A934203D18020FFF7F5
:1010000077FC07E07B68064A934203D14FF4807077
:10101000FFF76EFC0837BD4680BD00BF00000240F0
:101020000040024080B582B000AF78601020FFF72A
:101030004FFC7868FFF7DAFF7868FFF7BBFF0837E7
:10104000BD4680BD80B584B000AF78600B46FB70B4
:101050007868FFF7E7FF7868FFF790FF7B681B6809
:10106000FB60FB6823F44043FB60FB789B03FA685A
:101070001343FB607B68FA681A601037BD4680BD79
:1010800080B582B000AF786039607868FFF786FF7E
:101090003B681A687B685A613B685B7BC3F300134B
:1010A000DBB21A057B685A603B681B7BC3F3030302
:1010B000DBB21A467B685A623B681B7BC3F303139F
:1010C000DBB21A467B68DA623B685B7BC3F30303DF
:1010D000DBB21A467B681A623B685A687B689A6181
:1010E0003B689B6883F014027B689A640837BD46AE
:1010F00080BD00BF80B483B000AF78600B467B80BA
:101100007A887B685A630C37BD465DF8047B70476C
:1011100080B483B000AF78600B46FB7013463B8011
:10112000FB78002B03D13A887B68DA6302E03A88C7
:101130007B685A640C37BD465DF8047B704700BF7E
:1011400080B584B000AFF8600B467A60FB72F86837
:10115000FFF71EF9FB681A68FB7A9B0019460F23FC
:101160008B40DB431A407B681B68F97A89008B400F
:101170001A43FB681A60FA7A7B685968FB68043284
:1011800043F822101037BD4680BD00BF80B483B045
:1011900000AF78600B46FB701346BB70FA78BB78E3
:1011A00003F00303D9B27B68083201F0030109019F
:1011B00053F8220020F03000014343F822100C378E
:1011C000BD465DF8047B704780B483B000AF7860A3
:1011D0000B46FB701346BB707B685A6FFB785B0055
:1011E000194603238B40DB431A407B685A677B68B0
:1011F0005A6FBB78F97849008B401A437B685A676D
:101200000C37BD465DF8047B704700BF80B400AF6B
:10121000BD465DF8047B704780B483B000AF786052
:101220000B46FB707B68DA68FB78012101FA03F357
:101230001A437B68DA600C37BD465DF8047B704763
:1012400080B483B000AF78607B689B6803F00103D3
:10125000002B14BF01230023DBB218460C37BD4618
:101260005DF8047B704700BF80B483B000AF786046
:101270007B680122DA600C37BD465DF8047B70475D
:1012800080B483B000AF78607B6801221A610C37AC
:10129000BD465DF8047B704780B483B000AF7860D2
:1012A0007B6802221A610C37BD465DF8047B7047EB
:1012B00080B483B000AF786039607B683A681A61A7
:1012C0000C37BD465DF8047B704700BF80B483B027
:1012D00000AF78607B681B6F9BB218460C37BD4629
:1012E0005DF8047B704700BF80B584B000AF7860C4
:1012F0000023FB737B6893F8263083F00103DBB295
:10130000002B09D07B6893F82130012B04D1786839
:1013100000F0C4F80346FB73FB7B18461037BD464C
:1013200080BD00BF80B584B000AF78607B6893F863
:101330002630002B0CD07B6893F82130012B04D190
:101340007B685B691846FFF78FFF0023FB7301E0A2
:101350000123FB73FB7B18461037BD4680BD00BFE1
:1013600080B584B000AF7860786800F01DF803465F
:10137000002B11D07B6893F82630002B0CD07B68B3
:1013800093F82130012B04D17B685B691846FFF785
:1013900077FF0023FB7301E00123FB73FB7B1846FF
:1013A0001037BD4680BD00BF80B584B000AF786007
:1013B0000023FB737B6893F82130012B06D17B68F7
:1013C0005B691846FFF73CFF0346FB73FB7B18463F
:1013D0001037BD4680BD00BFF0B587B000AF786064
:1013E00000237B617B6893F82130012B31D17B682E
:1013F0005B691846FFF76AFF034601333B617B6870
:10140000DB691B7BC3F30303DBB2FB603B691A465A
:101410004FF00003114901FB03F0002101FB02F131
:1014200001440E48A2FB002319440B46F968C1F1A0
:101430002001C1F12006A1F1200022FA01F403FAF3
:1014400006F6344323FA00F0044323FA01F5234659
:101450007B617B6918461C37BD46F0BD711CC7B166
:1014600080B584B000AF78607B6893F82630002B9D
:101470000CD07B6893F82130012B04D17B685B6929
:101480001846FFF709FF0023FB7301E00123FB73FC
:10149000FB7B18461037BD4680BD00BF80B584B0C9
:1014A00000AF78607B681B69184600F08DFA034630
:1014B000FB737B681B699A687B681B7E1046194624
:1014C000FFF7AAFE7B685A697B68DB6910461946FC
:1014D000FFF7D6FD786800F019F87B685B6918465D
:1014E000FFF7DAFE7B68012283F826207B6893F8F9
:1014F0002430002B04D07B685B691846FFF7B4FEEC
:10150000FB7B18461037BD4680BD00BF80B582B05A
:1015100000AF78607B685A697B685B8C104619461F
:10152000FFF7E8FD7B685B69184600210022FFF7A2
:10153000EFFD7B681B699A687B68DB68104619467B
:10154000FFF7B6FE0837BD4680BD00BF80B483B04C
:1015500000AF78600B46FB707B68DA68FB7801218E
:1015600001FA03F31A437B68DA600C37BD465DF875
:10157000047B704780B483B000AF78607B68012241
:10158000DA600C37BD465DF8047B704780B483B0E9
:1015900000AF78600B467B807A887B685A630C3793
:1015A000BD465DF8047B704780B483B000AF7860BF
:1015B0000B467B807A887B68DA630C37BD465DF822
:1015C000047B704780B483B000AF786039607B687B
:1015D0003A681A610C37BD465DF8047B704700BF5E
:1015E00080B483B000AF78600B46FB707B68D3F8A3
:1015F000A420FB78012101FA03F31A437B68C3F8A6
:10160000A4200C37BD465DF8047B704780B584B0DC
:1016100000AF78600123FB737B6893F82930022BBD
:101620004DD17B681B68184600F0FEF90346FB733A
:10163000FB7B002B3FD17B689A687B68DB68104698
:101640001946FFF70DFC7B689A687B68DB699BB2E3
:1016500010461946FFF79AFF7B689A687B689B697A
:101660009BB210461946FFF79FFF7B685A687B685C
:101670005B6A10461946FFF7A5FF786800F024F86A
:101680007B6819697B6893F82C207B685B69084646
:1016900011461A46FEF792FE7B68002283F8292045
:1016A0007B6893F82F30002B02D0786800F078F830
:1016B0000023FB7303E07B68022283F82920FB7B75
:1016C00018461037BD4680BD80B582B000AF786047
:1016D0007B6893F83030002B0FD07B689B681846EE
:1016E0000021FFF77DFF7B689A687B6893F82A30BA
:1016F000104600211A46FFF7E9FB7B6893F831306A
:10170000002B0FD07B689B6818460221FFF768FF0B
:101710007B689A687B6893F82B30104602211A4642
:10172000FFF7D4FB0837BD4680BD00BF80B582B04F
:1017300000AF78607B6893F82930002B04D07B6879
:1017400093F82930042B11D17B685A687B6893F891
:101750002E3010461946FFF7F9FE7B689B68184645
:10176000FFF708FF7B68032283F829200837BD466E
:1017700080BD00BF80B584B000AF78600123FB73EB
:101780007B6893F82830002B04D17868FFF73EFF80
:101790000346FB73FB7B18461037BD4680BD00BF78
:1017A00080B582B000AF78607B6893F82830002B5A
:1017B00002D17868FFF7BAFF0837BD4680BD00BF89
:1017C00080B400AF044BDB6803F4E0631B0A1846E7
:1017D000BD465DF8047B704700ED00E080B483B047
:1017E00000AF0346FB7197F90730002B0BDB08496C
:1017F00097F907305B09FA7902F01F02012000FA1D
:1018000002F241F823200C37BD465DF8047B704797
:1018100000E100E080B483B000AF0346FB7197F9AC
:101820000730002B0CDB094997F907305B09FA797F
:1018300002F01F02012000FA02F2603341F8232077
:101840000C37BD465DF8047B704700BF00E100E047
:1018500080B483B000AF03463960FB7197F907305D
:10186000002B0ADB0D4997F907303A68D2B2920093
:10187000D2B20B4483F800230AE00949FB7903F054
:101880000F03043B3A68D2B29200D2B20B441A76EC
:101890000C37BD465DF8047B704700BF00E100E0F7
:1018A00000ED00E080B489B000AFF860B9607A6004
:1018B000FB6803F00703FB61FB69C3F10703062B19
:1018C00028BF0623BB61FB690633062B02D9FB69DF
:1018D000013B00E000237B61BB69012202FA03F3B4
:1018E0005A1EBB681A407B699A407B69012101FA44
:1018F00003F3591E7B680B40134318462437BD463B
:101900005DF8047B704700BF90B583B000AF78608E
:101910007B6859687B6893F821207B680833084608
:1019200011461A46FEF74AFD7B6819687B68DA7F24
:101930007B681433084611461A46FFF701FC7B68A2
:101940001A687B6893F82030104619460122FFF789
:101950001DFC7B681C7FFFF733FF01467B685B7FC4
:101960001A467B689B7F084611461A46FFF79AFF86
:10197000024663B218461146FFF76AFF7B6893F888
:101980002230002B0BD07B681B7F5BB21846FFF721
:1019900041FF7B681B7F5BB21846FFF71FFF0023E8
:1019A00018460C37BD4690BD80B483B000AF786058
:1019B0007B68DB6843F480727B68DA600C37BD4675
:1019C0005DF8047B704700BF80B582B000AF7860DF
:1019D0007B685B7B83F00103DBB2002B0FD07B685D
:1019E0009A687B681B7B10461946FFF72BFB7B68C8
:1019F0009B681846FFF7D8FF7B6801225A730023C3
:101A000018460837BD4680BD80B483B000AF78600B
:101A10007B68DB6843F480727B68DA600C37BD4614
:101A20005DF8047B704700BF80B582B000AF78607E
:101A30007B685B7B83F00103DBB2002B0FD07B68FC
:101A40009A687B681B7B10461946FFF7EBF97B68A9
:101A50009B681846FFF7D8FF7B6801225A73002362
:101A600018460837BD4680BD80B582B000AF7860AB
:101A70007B6819687B681A7C7B68043308461146CA
:101A80001A46FEF79BFC7B6819687B681A7C7B68AA
:101A90005B7C084611461A46FFF796FB0023184662
:101AA0000837BD4680BD00BF80B485B000AF786008
:101AB0007B6803F00703FB600C4BDB68BB60BA6814
:101AC0004FF6FF031340BB60FB681A02BB68134369
:101AD00043F0BF6343F40033BB60044ABB68D36088
:101AE0001437BD465DF8047B704700BF00ED00E091
:101AF00080B582B000AF0120FFF7D6FF72B6214B50
:101B0000214A9A60BFF34F8F62B61E4A1D4BD3F82D
:101B1000883043F47003C2F888301C4B03F58053BF
:101B200014331B687B607B6823F00F037B607B684A
:101B300043F004037B60154B03F5805314337A683C
:101B40001A60104A0F4B5B6923F0100353610D4A72
:101B50000C4B5B6923F0080353610A4A094B5B6A2B
:101B600023F480335362074A064B5B6A23F4003345
:101B70005362044A034B5B6A23F4802353620837A1
:101B8000BD4680BD00ED00E00000000800100058D8
:101B900080B485B000AF78600023FB737B680122BE
:101BA0001A70FB7B18461437BD465DF8047B7047FE
:101BB00080B400AF024B1846BD465DF8047B704709
:101BC000001BB700B0B586B000AF124B3C1D1D46E0
:101BD0000FCD0FC42B6823603B1D1846FEF7C2FCD7
:101BE0000020FEF7ADFD0020FEF762FD0420FEF7A9
:101BF00033FE01202021FEF797FE0020FEF76CFD4A
:101C00000120FEF751FE0120FEF73AFE1837BD46CF
:101C1000B0BD00BF901E000880B582B000AF0023A9
:101C2000FB711548FFF7B4FF0346FB71FB79002BEE
:101C300004D11248FFF79EFD0346FB71FB79002B90
:101C400004D10F48FFF760FE0346FB71FB79002BC0
:101C500004D10C48FFF748FB0346FB71FB79002BCE
:101C600004D10948FFF700FF0346FB71FB791846D2
:101C70000837BD4680BD00BF8C88FE1F3888FE1F18
:101C8000581E00081088FE1F7C1E000880B483B018
:101C900000AF78600B46FB70FB7801229A407B68AE
:101CA0005A600C37BD465DF8047B704780B483B042
:101CB00000AF78600B46FB70FB784FF480329A409F
:101CC0007B685A600C37BD465DF8047B704700BFE7
:101CD00080B483B000AF78600B46FB707B685A6AB3
:101CE000FB7822FA03F303F0010318460C37BD46D4
:101CF0005DF8047B704700BF80B582B000AF7860AC
:101D00007B685A687B6893F8213010461946FFF7C4
:101D1000DFFF034618460837BD4680BD80B582B058
:101D200000AF78607B681A687B681B7C1046194698
:101D3000FFF7ACFF0837BD4680BD00BF80B582B05D
:101D400000AF78607B681A687B681B7C1046194678
:101D5000FFF7ACFF0837BD4680BD00BF80B500AFC0
:101D60000B48FFF7C9FF0346002B06D00948FFF7D1
:101D700077FB0848FFF7D6FA09E00648FFF72CFB87
:101D800003461A46044B1A600248FFF7E9FA80BD81
:101D9000581E00081088FE1F9088FE1F80B582B074
:101DA00000AFFFF739FF0346FB71FB79002B00D032
:101DB000FEE70C4B1B680C4A934202DC0B4B0C4AAF
:101DC0001A600A4B1B68002B03DD0A48FFF7A6FFC9
:101DD00002E00848FFF7B2FF044B1B68013B034ACF
:101DE0001360E6E79088FE1F9F8601009488FE1F1F
:101DF000C0C62D007C1E000870B50E4B0E4CE41AB8
:101E0000A41000251E46A54204D056F82530984758
:101E10000135F8E7FFF7FAF9084C094BE41AA4106A
:101E200000251E46A54204D056F8253098470135B6
:101E3000F8E770BD8C88FE1F8C88FE1F8C88FE1F03
:101E40008C88FE1F000000000800000098000000C1
:101E5000000001000400000000400440008002482F
:101E60000000000000000000000000000000000072
:101E70000D010000053F000300030100008002483F
:101E800080000000000001000000000000000000D1
:101E9000300201010000010000000000000001000C
:041EA0000201010139
:101EA4000000000000000000000000000F0000001F
:101EB40000CA9A3B3435E3580A00000005000000CC
:101EC4006C88FE1F00010240000000000088FE1F15
:101ED4000001A8AB000000007C88FE1F00C0004089
:101EE40000C40040441E0008008002484C1E000844
:101EF400C0C50000B8DB0000E8030000005000008B
:101F0400000200000C0003010000000000449508DA
:101F14000001000000000240000000000044950899
:0C1F24000100000000C0004000000000B0
:0400000508000201EC
:00000001FF
